:02000002D0002C
:1040000000400D00D87A0D00000006000C000501EC
:084010000401BD0400000000E2
:1040180064730D0009480A49884208B505D0094A61
:10402800824202D0121A02F0E9FC0748074A00212E
:10403800121A02F0EEFC014808BD00BF80E203201E
:10404800F0790D0040E3032040E30320F0E703206C
:1040580070B502F081F9074C074BE41AA408002553
:104068001E46A54204D056F8253098470135F8E792
:1040780070BD00BFE8790D00AC790D0000F006B9FD
:1040880008B500F017FABDE8084002F033B900F0AF
:10409800FBBF01F001B800F0FFBF0078B0FA80F074
:1040A800400970470123037070470000014B01224B
:1040B8001A7070475CE3032037B59DF81840234316
:1040C8008DF800303C23054601F0A2F9284603B0DC
:1040D80030BD000013B50F49044601F096FE70B9D3
:1040E8000D49204601F091FE48B90C49204601F0DF
:1040F8008CFE20B90A49204601F087FE38B10A2211
:1041080001A9206802F086FD064B1860012002B064
:1041180010BD00BF90750D0078730D007A730D0007
:104128007C730D0060E3032010B5074C00F098FD88
:104138002368C01AB0F57A7F04D300F091FD20609F
:10414800012010BD002010BD6CE3032008B5FFF767
:10415800EBFF18B1BDE80840FFF7E6BF00F01CFF11
:10416800F5E738B5046805467CB16368013B6360D0
:104178005BB9236820469B689847A368013BA36006
:104188001BB923682046DB689847284638BD0000DD
:1041980000B589B000F008FFC0B1FFF7D7FF0D48A0
:1041A80000F0ECFB014604A801F0B4FE0A4B0B49F1
:1041B8001B7800228DF8002002A8049AFFF77CFFE4
:1041C80003A8FFF7CEFF04A801F0ABFD09B05DF826
:1041D80004FB00BF44E3032068E303207E730D0063
:1041E80038B500F03DFD0D4B1A6802F57A7282422F
:1041F8001C4612D80A480B4D00F050FA084800F047
:104208007BFB2B68984205D0FFF7C2FF044800F0FB
:1042180073FB286000F024FD206038BD58E30320BC
:1042280044E3032064E3032010B501F0D1FE164CEB
:10423800C1B2204600F093FC01F0C0FEC1B2204696
:1042480000F096FC01F0B0FEC1B2204600F099FCE7
:1042580001F0C8FEC1B2204600F09CFC01F0CCFE83
:10426800C1B2204600F09FFC01F0CEFE0146204678
:1042780000F0A2FC204600F0F2FA204600F00EFA08
:10428800BDE81040FFF784BF44E303201FB50023B7
:1042980004222E492E4800F06FFE2E4A2E492F4840
:1042A80000F096FF2E4A2F492C4800F091FF2E4A25
:1042B8002E492A4800F08CFF02F0B6F8002000F0E2
:1042C800E7FC07EE900AB8EE670A01F007FE2848F7
:1042D80000F081FC264800F0FEFA254800F0E7FAD5
:1042E800044610B900F060FE98B9214800F0DFFAE2
:1042F800044610B900F058FED0B91E4B1E49188864
:104308000023009302224FF0FF3301F08BFA04B030
:1043180010BD1A4B1A4A1B781A498DF8004002A89A
:10432800FFF7CAFE03A8FFF71CFFFFF77DFFDCE7D6
:10433800124B154A1B7813498DF8004002A8FFF765
:10434800BBFE03A8FFF70DFFD7E700BF78740D0089
:1043580087730D008F730D003D450D00AD510D00A5
:104368009C730D00DD400D00A7730D00F9450D008D
:1043780044E3032084E20320B5400D0068E30320F2
:10438800B5730D00C3730D00C9730D0010B58CB063
:1043980000F00AFE0E4CA0B123680E4A202104A8A2
:1043A80000F09AFEFFF7D2FE0B4B0C491B78002257
:1043B8008DF8002002A804AAFFF77EFE03A8FFF7E5
:1043C800D0FE2168064800F0BAFB0CB010BD00BF53
:1043D80080E20320DE730D0068E30320FC730D0008
:1043E80044E303201FB500F0DFFD70B1FFF7AEFE18
:1043F8000B4B0C491B7800228DF8002002A80A4AB2
:10440800FFF75AFE03A8FFF7ACFE1621074800F095
:10441800ECF9064800F0A4F905B05DF804FB00BF0C
:1044280068E30320FC730D0002740D0044E30320CD
:104438001FB500F0B9FD70B1FFF788FE194B1A4996
:104448001B7800228DF8002002A8184AFFF734FED6
:1044580003A8FFF786FE1421154800F0C6F90021CD
:10446800134800F07CFB0121114800F081FB00217A
:104478000F4800F086FB00210D4800F08BFB00215F
:104488000B4800F090FB0021094800F095FB084814
:1044980000F066F9064800F02AF9FFF779FE05B042
:1044A8005DF804FB68E30320FC730D0019740D002C
:1044B80044E303201FB5194C2368032B10D8DFE809
:1044C80003F00205080BFFF78BFE09E0FFF75EFF1C
:1044D80004E0FFF787FF01E0FFF7AAFF002323604E
:1044E8000F4B1A781C46B2B10E4800F0E8F900F0FC
:1044F8005BFD70B1FFF72AFE0B4B0C491B780022BD
:104508008DF8002002A80A4AFFF7D6FD03A8FFF796
:1045180028FE0023237004B010BD00BF60E3032011
:104528005CE3032044E3032068E30320FC730D00ED
:104538002E740D0070B5CCB0044601F02EFD0A2291
:10454800064605A9206802F065FBC4B204F10C0315
:10455800DBB2182B40D843B207EE903AB8EEE70A20
:10456800039301F0BBFC01F05FFF2146002000F03F
:1045780097FB039B1A4A4FF480710CA800F0ACFD1E
:1045880000F012FD20B3174D0024FFF7DFFD2B7854
:1045980015498DF800400CAA08A8FFF78DFD09A859
:1045A800FFF7DFFDFFF7D2FD314608A801F0B2FCA6
:1045B800089B0393039A2B780C498DF8004006A8B2
:1045C800FFF77AFD07A8FFF7CCFD08A801F0A9FBC3
:1045D800FFF72AFE012000E000204CB070BD00BFAC
:1045E8003D740D0068E3032082730D0051740D00C3
:1045F80010B5C6B00A2203A9006802F00BFB0F4AE7
:10460800034604464FF4807106A800F065FD00F0EB
:10461800CBFC70B1FFF79AFD094B0A491B780022C1
:104628008DF8002004A806AAFFF746FD05A8FFF7A5
:1046380098FD054B01201C6046B010BD5F740D004D
:1046480068E3032082730D0080E2032008B5064B5F
:1046580001221A7000F034FB044B05481968BDE8C4
:10466800084000F0C4BA00BF68E3032084E20320D6
:1046780044E303200368C9B29B68184710B5044691
:1046880001F0E6FE01F0A6F8208A002101F0A2FE62
:10469800208A0121BDE8104001F0ADBE38B50446BE
:1046A80001F0D6FE682101F0ADF801F0D1FE0368F3
:1046B80000219B68984701F0CBFE01F0AAF801F0B1
:1046C800C7FE0722682101F094F8A51C093401F0FF
:1046D800BFFE03681B69984728B101F0B9FE03685B
:1046E8005B69984728700135A542F0D138BD70B58F
:1046F800044601F0ADFE682101F084F801F0A8FE3F
:10470800036807219B68984701F0A2FE01F081F831
:1047180001F09EFE0422682101F06BF8A51CA61D7D
:1047280001F096FE03681B69984738B101F090FEC6
:1047380003685B69984700F07F0028700135B5422F
:10474800EED1637903F0400202F0FF012AB123F0B1
:10475800400363710023A37170BDA371617170BDC3
:1047680010B5044601F074FE682101F04BF801F021
:104778006FFE036807219B68984701F069FE63781C
:10478800A178DB01DBB21943FFF774FF01F060FE8B
:104798006378E1789B0103F080031943FFF76AFF10
:1047A80001F056FE637821795B0103F08003194319
:1047B800FFF760FF63781B0707D501F049FE6378B0
:1047C8006179DB0003F0C00306E001F041FE637885
:1047D800A179DB0003F0C0031943FFF74BFF01F099
:1047E80037FEBDE8104001F014B84170704710B5AD
:1047F8000C4601F02DFE682101F004F801F028FEB6
:10480800036821469B68984701F022FE01F001F8F1
:1048180001F01EFE0122682100F0EBFF01F018FEF6
:1048280003685B699847C0B210BD38B514460D4699
:1048380001F00EFE682100F0E5FF01F009FE0368B3
:1048480029469B68984701F003FE036821469B6848
:10485800984701F0FDFDBDE8384000F0DABF70B5BB
:10486800044601F0F5FD682100F0CCFF01F0F0FDF1
:10487800036800219B689847651C04F1080601F04D
:10488800E7FD036815F8011F9B689847B542F6D104
:1048980001F0DEFD00F0BDFF0F212046FFF7A7FF66
:1048A800204600220F21BDE87040FFF7BEBF08B5C3
:1048B8000F21FFF79CFFC043C0F3C01008BD10B51F
:1048C8000F210446FFF793FF204600220F21BDE881
:1048D8001040FFF7AABF10B50446FFF7F0FF0E21FE
:1048E8002046FFF784FF40F00502D2B220460E2191
:1048F800BDE81040FFF799BFC378181100EB80009E
:1049080003F00F0303EB4000C0B27047B1F5FA6F34
:1049180028BFA1F5FA6130B5144DCC1C880705FBFA
:1049280001F54FEA940404D1022A94BF0021012121
:1049380000E000210E48013A50F822209DF81000AE
:10494800134423440B440B4A9DF814100A443C2199
:1049580011FB00229DF80C104FF4616000FB01224E
:1049680005482A4400FB032030BD00BF8033E10125
:1049780080740D0000F26B3880510100F0B5827927
:10498800C179077A8678C5780479131103EB830314
:1049980002F00F0202EB43030A1102EB820201F05C
:1049A8000F0101EB4202391101EB810107F00F07FA
:1049B80007EB4101371107EB870706F00F0685B0B3
:1049C80006EB4706F6B202962E1106EB860605F0B0
:1049D8000F0505EB4605EDB20195251105EB85059B
:1049E80004F00F0404EB4504E4B20094DBB2D2B245
:1049F800C9B2FFF78BFF05B0F0BD0000474B9942E5
:104A0800F0B540F28180464B464E0B443C22B3FB46
:104A1800F2F2D2B2C2EB0211A3EB81010A25C9B2AC
:104A2800B1FBF5F405FB141101EB04114FF46164BB
:104A3800B3FBF4F4E4B28170C4EB0411A2EB81027D
:104A4800D2B2B2FBF5F105FB112202EB0112C270E2
:104A58003549B3FBF1F101EB4102A4EBC204E4B226
:104A6800B4FBF5F205FB124440F2B55504EB021411
:104A78002E4AB3FBF2F3B1FBF5F205FB12153B2D01
:104A880088BF013340F26D123C3D0471CC1AB4FB6F
:104A9800F2F402FB1412D31AB5F5997F38BF01332B
:104AA8004FF4B7750D2204F00307AB4208D2013A60
:104AB800022A56F8045DF8D9002FF6D10135F4E73B
:104AC80001335B1BDBB20A25B3FBF5F605FB163396
:104AD80003EB06130431D2B283710723B1FBF3F35E
:104AE800C3EBC303C91AE4B2B2FBF5F305FB132207
:104AF80002EB0312B4FBF5F305FB134505EB0315B5
:104B08004171C2710572F0BD00238370C3700371D7
:104B180083714371C3710372F0BD00BF7F436D3869
:104B280080BC92C7B0740D0080510100801F8607B9
:104B380010B5FFF763FFBDE81040FFF711BE38B5A9
:104B480004460D46FFF7AAFD002363702046FFF7D1
:104B580015FF41192046BDE83840FFF7E9BF0A2391
:104B6800B1FBF3F203FB121303EB021383707047DC
:104B78000A23B1FBF3F203FB121303EB0213C37016
:104B880070470A23B1FBF3F203FB121303EB021382
:104B9800037170470A23B1FBF3F203FB121303EB13
:104BA8000213837170470A23B1FBF3F203FB12135C
:104BB80003EB0213C3717047B1F5FA6F28BFA1F573
:104BC800FA61C9B20A23B1FBF3F203FB121101EB3C
:104BD80002110172704710B50E210446FFF707FE57
:104BE800204600220E21BDE81040FFF71EBE10B57A
:104BF80004460161FFF742FD204610BD00F060B891
:104C080008B5024B1B689B68019308BD4802030066
:104C180008B5024B1B681B69019308BD48020300D5
:104C280008B5024B1B685B69019308BD4802030085
:104C380008B5024B1B681B6B019308BD48020300B3
:104C480008B5024B1B685B6C019308BD4802030062
:104C580008B5024B1B685B68019308BD1802030086
:104C680008B5024B1B685B69019308BD1802030075
:104C780008B5024B1B68DB69019308BD18020300E5
:104C880008B5024B1B689B6A019308BD1802030014
:104C980008B5024B1B68DB6A019308BD18020300C4
:104CA80008B5024B1B681B6B019308BD1802030073
:104CB80008B5024B1B689B6D019308BD18020300E1
:104CC80008B5024B1B681B68019308BD2C02030042
:104CD80008B5024B1B689B68019308BD2C020300B2
:104CE80008B5024B1B68DB68019308BD2C02030062
:104CF80008B5024B1B681B69019308BD2C02030011
:104D080008B5024B1B689B69019308BD2C02030080
:104D180008B5024B1B68DB69019308BD2C02030030
:104D280008B5024B1B68DB68019308BD2802030025
:104D380008B5024B1B685B69019308BD2802030094
:104D480008B5024B1B689B69019308BD2802030044
:104D580008B5024B1B68DB69019308BD28020300F4
:104D680008B5024B1B681B6A019308BD28020300A3
:104D780008B5024B1B685B6A019308BD2802030053
:104D880008B5024B1B689B6A019308BD2802030003
:104D980008B5024B1B68DB6A019308BD28020300B3
:104DA80008B5024B1B681B6B019308BD2802030062
:104DB80008B5024B1B685B6B019308BD2802030012
:104DC80008B5024B1B681B6C019308BD2802030041
:104DD80008B5024B1B685B69019308BD64020300B8
:104DE80008B5024B1B689B68019308BD6802030065
:104DF80008B5024B1B68DB68019308BD6802030015
:104E080008B5024B1B68DB69019308BD300203003B
:104E180008B5024B1B681B6A019308BD30020300EA
:104E280008B5024B1B681B68019308BD3C020300D0
:104E380008B5024B1B68DB68019308BD3C02030000
:104E480008B5024B1B681B69019308BD3C020300AF
:104E580008B5024B1B685B69019308BD3C0203005F
:104E680008B5024B1B689B69019308BD3C0203000F
:104E780008B5024B1B68DB69019308BD3C020300BF
:104E880008B5024B1B681B6A019308BD3C0203006E
:104E980008B5024B1B689B6A019308BD3C020300DE
:104EA80008B5024B1B681B68019308BD4C02030040
:104EB80008B5024B1B681B69019308BD4C0203002F
:104EC80008B5024B1B685B69019308BD4C020300DF
:104ED80008B5024B1B689B69019308BD4C0203008F
:104EE80008B5024B1B68DB69019308BD4C0203003F
:104EF80008B5024B1B681B6A019308BD4C020300EE
:104F080008B5024B1B681B68019308BD200203000B
:104F180008B5024B1B685B68019308BD20020300BB
:104F280008B5024B1B68DB6C019308BD2002030027
:104F380008B5024B1B685B6D019308BD2002030096
:104F480008B5024B1B689B6D019308BD2002030046
:104F580008B5034B1B68D3F88830019308BD0000DF
:104F68002002030008B5034B1B68D3F89430019363
:104F780008BD00002002030008B5024B1B681B682F
:104F8800019308BD4402030008B5024B1B685B6827
:104F9800019308BD4402030008B5024B1B689B68D7
:104FA800019308BD4402030008B5024B1B685B6906
:104FB800019308BD4402030008B5024B1B681B6A35
:104FC800019308BD4402030008B5024B1B681B6B24
:104FD800019308BD4402030008B5024B1B68DB6B54
:104FE800019308BD4402030008B5024B1B685B68C7
:104FF800019308BD4002030008B5024B1B689B687B
:10500800019308BD4002030008B5024B1B68DB682A
:10501800019308BD4002030008B5024B1B681B69D9
:10502800019308BD4002030008B5024B1B685B6989
:10503800019308BD4002030008B5024B1B689B6939
:10504800019308BD4002030008B5024B1B68DB69E9
:10505800019308BD4002030008B5024B1B681B6A98
:10506800019308BD4002030008B5024B1B681B6B87
:10507800019308BD4002030008B5024B1B685B6B37
:10508800019308BD4002030008B5024B1B681B686A
:10509800019308BD1C02030008B5024B1B685B683E
:1050A800019308BD1C02030008B5024B1B689B68EE
:1050B800019308BD1C02030008B5024B1B681B695D
:1050C800019308BD1C02030008B5024B1B689B69CD
:1050D800019308BD1C02030008B5024B1B68DB697D
:1050E800019308BD1C02030008B5024B1B68DB6A6C
:1050F800019308BD1C02030008B5024B1B681B6B1B
:10510800019308BD1C02030010B5836804460BB95F
:1051180001F0E7F9C3689847A3681BB10322214649
:105128002046984720461021BDE8104001F0D7B925
:1051380070470020704710B51021044601F0CFF9E0
:10514800204610BD08B508B1FFF7F5FF08BD10B53A
:105158008368044613B1032201469847204610BDD0
:1051680038B5C468ECB12378022B02D1E068FFF7A8
:1051780093FF656835B12846FFF7E9FF10212846F7
:1051880001F0ADF9A56835B12846FFF7E0FF102119
:10519800284601F0A4F920461421BDE8384001F062
:1051A8009EB938BD10B588B00446684600F000FEC8
:1051B800694604A800F01EFE04A8A047044604A8F7
:1051C80000F0AFFD684600F0ACFD204608B010BD09
:1051D800F0B5102485B007460E4615460021224634
:1051E800684601F016FC002269461046ADF80040FA
:1051F800029703960195FFF7C7FE05B0F0BD13B5FA
:10520800044691E8050000234B600B602060626053
:1052180001A801930093FEF7A4FF204602B010BD39
:105228000B68036013B15A6801325A607047F7B5CA
:105238000C4602AD54F8043B45F8083D06460F46B7
:1052480001A82146FFF7ECFF29463046FFF7D7FFB4
:1052580001A8FEF786FF2046FEF783FF384608219F
:1052680001F03DF9304603B0F0BD13B50B460446D6
:1052780003C88DE8030093E8030084E803009DE871
:10528800030083E8030002B010BD826810B50AB9B4
:1052980001F027F9C368BDE81040184708B5006851
:1052A80000F11001FFF7F1FF08BD826810B50AB9D7
:1052B80001F017F9C368BDE81040184708B5006841
:1052C80000F11001FFF7F1FF08BD38B50023836036
:1052D8008B6804460D462BB102229847EB68E360C1
:1052E800AB68A360204638BD2DE9F0414FF69C73AA
:1052F80086B00468B1F904208B8000230F688DF80C
:1053080000300B604FF00200D4E84F1F994203D1E0
:10531800C4E8450F002DF7D102D08DF800106BE0DE
:1053280014F10C051EBFE76022821F460123BFF35C
:105338005F8F0020637004F10803BFF35F8F53E8A9
:10534800006F43E80002002AF9D1BFF35F8F002EF7
:1053580052D0FFF7E5FD20B129463046FFF795FF0B
:1053680043E031466846FFF7B0FFE068B4F91050F3
:1053780008B101F091FB04901020ADF81450FEF72D
:1053880086FE054630B34FF00008C0F808801820A4
:10539800FEF77DFE0446C0B1C0F8088001466846A5
:1053A800FFF763FF029BA268A360039B0292E26877
:1053B800E360BDF81430A3824FF69C73ADF8143047
:1053C800049B03922361CDF810800E4BEB600E4BCB
:1053D8002C60AB600498FFF75FFE6846FFF7B7FEE6
:1053E800002229460948FFF7A3FD3046FFF7AFFE24
:1053F8001021304601F073F83846FFF74DFE06B02D
:10540800BDE8F081A5520D0001550D0011510D00A8
:105418002DE9F04F8BB007AD4FF0000B06469946CB
:1054280014200C230F4690469DF850A0C5F804B0F0
:10543800C5F808B00793FEF72AFE044638B180F88D
:1054480000B080F801B0C0F804B0C0F808B000237C
:10545800102003940493FEF71AFE28B10123436039
:105468008360234B0360C4600490224B0893082098
:10547800FEF70DFE044628B1039B40F8043B04A93F
:10548800FFF7CEFE00955FFA8AF34A464146384652
:105498000994FFF791FDB8B9039B5B7803F0FF020D
:1054A80093B94FF69C7305A903A80592ADF8183077
:1054B800FFF71AFF0598FFF7EFFD05A80999FFF711
:1054C800B6FE06A8FEF74DFE039B059304A906A8A1
:1054D800FFF7A6FE05A93046FFF791FE06A8FEF7DE
:1054E80040FE04A8FEF73DFE30460BB0BDE8F08F45
:1054F800B8740D006D560D00022AF8B5044606D0A2
:10550800032A17D0012A21D10B6803601EE0182056
:105518000E68FEF7BCFD054650B13146FFF7D5FED3
:105528003069B6F9147008B101F0B6FA2861AF8293
:1055380025600BE004684CB12069FFF7ADFD2046FB
:10554800FFF705FE1821204600F0C9FF0020F8BD2E
:1055580038B5002383608B6804460D462BB10222C0
:105568009847EB68E360AB68A360204638BD022A21
:1055780070B5044606D0032A11D0012A18D10B6849
:10558800036015E014200E68FEF781FD054620B182
:105598003146FFF7DDFF337C2B74256008E0046893
:1055A80034B12046FFF7D3FD1421204600F097FFC1
:1055B800002070BDF0B5002387B00C46BFF35F8FA5
:1055C80050E8006F40E80032002AF9D1BFF35F8F3E
:1055D800002E3FD01846FFF7A3FC074620B121460E
:1055E8003046FFF762FE2EE0314601A8FFF7B0FF14
:1055F80023788DF814301020FEF749FD0546D0B108
:1056080087601420FEF743FD044678B187600146A1
:1056180001A8FFF72AFE039BA268A360049B0392DC
:10562800E268E3609DF81430049223740A4BEB603F
:105638000A4B2C60AB6001A8FFF789FD00222946C0
:105648000748FFF775FC3046FFF781FD102130460B
:1056580000F045FF07B0F0BDC5520D0077550D00AD
:1056680011510D0030B585B004460D466846114607
:10567800FFF7DDFD7CB124B228460DB101F00CFA2C
:10568800029002A96846ADF80C40FFF72DFE02987B
:10569800FFF702FD1DE000988DF808404FF0010269
:1056A800D0E84F3FA34203D1C0E8412F0029F7D1EA
:1056B80002D08DF808300CE010F10C014FF0010316
:1056C80018BF0373BFF35F8F043000F8033CFFF784
:1056D80071FF01A8FEF745FD05B030BD0022114657
:1056E8004068FFF7B9BC002211464068FFF7C4BC08
:1056F80000224068FFF7B8BC002281F00101406831
:10570800FFF7A2BC00231A4619464068FFF794BC6D
:1057180000231A4619464068FFF786BC0022114646
:105728004068FFF779BC002211464068FFF764BC67
:10573800002202214068FFF767BC00231A46406830
:10574800FFF752BC024B03225A60024A1A607047A4
:1057580070E30320D4740D007047F8B5064615466B
:105768000C468F18BC4206D0336814F8011B9B689E
:1057780030469847F6E72846F8BD0022007CFFF738
:10578800EFBA0021007CFFF7F3BA0021007CFFF795
:10579800F7BA0021007CFFF7FBBA0021007CFFF775
:1057A800FFBA10B51421044600F099FE204610BD3A
:1057B80010B504464FF47A730846A3600021044BE1
:1057C800207461602360FFF7FBFA204610BD00BF1C
:1057D80008750D0000231A461946007CFFF7A0BA89
:1057E80013B50024007C0094FFF7A2FAC0B202B0FF
:1057F80010BD0123D2B2C9B2FFF7F2BF0022007C6C
:10580800FFF79EBAC9B2FFF7F9BF0022007CFFF785
:105818009FBA0121FFF7F9BF0021007CFFF7C8BA42
:1058280000470000F0B585B01C4605460E461746F1
:10583800FFF76EFA002084424FF0040303908DF8BE
:105848000C30A5BF9DF828308DF80E30034603AB09
:10585800009328463B4632460449A8BF8DF80D40C0
:10586800FFF74EFA012005B0F0BD00BF29580D0022
:10587800704710B51821044600F031FE204610BDCF
:10588800F0B5037D062B8DB00E4600F104074FF0EE
:10589800000402D000F1080518E00CAD394605F8FF
:1058A800304D2F232A460A20FFF792FA284601F0A6
:1058B8000EF933680246DB682946304698470FE000
:1058C80024B12E21304600F0C7F9044415F8011D13
:1058D8000A22304600F0F0F9BD420444F0D12046D7
:1058E8000DB0F0BD10B5054B0446112240F8043B3D
:1058F800002101F08EF8204610BD00BF30750D0064
:105908000346074A10B543F8042B01F1100251F879
:10591800044B43F8044B9142F9D10A781A7010BD30
:1059280030750D0010B59DF8084044EA032343EA9A
:10593800024242EA016104234160037510BD37B594
:105948000D788B784A78C97800912946FFF7EAFFE5
:1059580003B030BD014B024A1A60704778E3032058
:10596800F1750D00002211464068FFF775BB002253
:1059780011464068FFF780BB00224068FFF774BB00
:10598800002281F001014068FFF75EBB00231A4640
:1059980019464068FFF750BB00231A46194640686D
:1059A800FFF742BB002211464068FFF735BB0022D3
:1059B80011464068FFF720BB002202214068FFF72C
:1059C80023BB00231A464068FFF70EBB38B50546CF
:1059D80088B104684CB1A3681BB103222146204654
:1059E80098471021204600F07AFD28461421BDE88A
:1059F800384000F074BD38BD10B103685B681847C3
:105A0800704710B503680446BBB15868FFF7F8F84B
:105A180078B923685A7C12B95868FFF7F9F82368EF
:105A28005868FFF7FDF820680023236028B1FFF7C6
:105A3800CDFF206808B1FFF7C9FF204610BD000060
:105A480038B50C4B03600446D0F8CC0108B1FEF71A
:105A580022FBD4F8C45135B12846FFF7D2FF042100
:105A6800284600F03CFDA06808B1FFF7C5FF2046B6
:105A780038BD00BF24760D0038B50D4C0D4B2360A2
:105A88000025022304F5E4706360A560C4F8C451DE
:105A9800C4F8C851FFF7D4F8074BC4F8CC512360B9
:105AA8002046064A0649BDE8384000F013BD00BF4D
:105AB8007CE3032058760D0024760D0040E3032094
:105AC800495A0D0000231A464068FFF78DBA002294
:105AD80002214068FFF798BA002211464068FFF794
:105AE8008BBA002211464068FFF796BA00231A467F
:105AF80019464068FFF798BA00231A4619464068C5
:105B0800FFF79ABA002281F001014068FFF79CBABA
:105B180000224068FFF7A8BA002211464068FFF744
:105B2800ABBA002211464068FFF796BA2DE9F04358
:105B3800002495B016460D460746FFF7D3FE2146CA
:105B480020220CA8009400F064FF40230C93214607
:105B58006B460CAA3046FFF74BF90446002844D19F
:105B6800024601216868FFF757FA0221804622465B
:105B78006868FFF751FA009E81462146002E34D00E
:105B8800002932D17368022B02D00A2B09D02AE0EF
:105B9800B8F1000F27D0716938460431FFF7CFFEFE
:105BA80020E0B9F1000F1ED07469112201A800F09D
:105BB80030FF06238DF8143001AD04F108031834C2
:105BC800186859682A4603C20833A3421546F7D114
:105BD80001A906A807ADFFF793FE0FCD3C1D0FC422
:105BE8002B6823700121F669C8E70098FFF7F8F8D9
:105BF800384615B0BDE8F083024B034A1A6000220C
:105C08005A6070474CE5032058760D00F8B50646F3
:105C18000D468F180024BD420CD0336815F8011BBF
:105C28009B6830469847002801DB0444F3E7002CC2
:105C380008BF04462046F8BD70B505460C46084620
:105C480049B100F044FF2B68024621462846DB682C
:105C5800BDE87040184770BD03689B68184730B5A9
:105C68008BB00B4600218DF82410012A98BF0A2218
:105C78000DF12304B3FBF2F505FB123303F0FF0328
:105C8800092B94BF30333733DBB2214604F801398E
:105C98002B46002DEED1FFF7CFFF0BB030BD10B46F
:105CA8002AB903685DF8044B9B68C9B21847D2B299
:105CB8005DF8044BFFF7D3BFFFF7F1BF10B50446FB
:105CC800FFF745FA204610BD0348044A044900235B
:105CD800836000F0FFBB00BF54E5032040E30320CE
:105CE800C55C0D00704710B51021044600F0F7FBA5
:105CF800204610BD70B5084B0360044600250E46CB
:105D080040F80C5FFEF794FF30462671FFF778F8ED
:105D1800A560204670BD00BF8C760D000079FFF7A6
:105D280077B810B504460068FFF7B6F9204610BDED
:105D380010B50446006808B1FFF7AEF900232360E8
:105D4800A360636010BD38B504460D460068013194
:105D5800FFF7AAF910B184E82100012038BD10B579
:105D68000368044613B143688B4207D22046FFF705
:105D7800EAFF20B1A3680BB922681370012010BD97
:105D880070B50E46114604461546FFF7E8FF18B9E8
:105D98002046FFF7CDFF09E02A463146A560206876
:105DA80000F02CFE2268A3680021D154204670BD63
:105DB80038B50023044603604360836003730D46CF
:105DC80039B1084600F083FE294602462046FFF70F
:105DD800D7FF204638BD884210B50B46044607D089
:105DE800096819B19A68FFF7CBFF01E0FFF7A0FF38
:105DF800204610BD10B5002304460360436083604D
:105E08000373FFF7E8FF204610BD08B582680B460C
:105E180012B919B9012008BD11B90368187802E050
:105E2800006800F027FEB0FA80F0400908BD0000C5
:105E3800044B00204FF6FF72187058809A80FFF7C5
:105E480067B800BF64E50320F0B5144B144F1E6813
:105E5800144B064418683B6806449E428BB01BD01E
:105E68000AA801AD40F8286D00F0D0FC436903F2A0
:105E78006C73436104460FCC0FC50FCC0FC5D4F823
:105E880000E0C5F800E001AD0FCD074C0FC40FCD01
:105E98000FC43E60C4F800E00BB0F0BD9CE50320E1
:105EA80098E5032094E503206CE5032008B500205D
:105EB800FFF78AF828B1FFF777F880F00100C0B241
:105EC80008BD012008BD000008B5FFF7BDFF024B63
:105ED8001869013008BD00BF6CE50320FAEE087AA6
:105EE800B4EEE70AF1EE10FA0FD4F2EE0C7AB4EE43
:105EF800E70AF1EE10FA08DCDFED047A044B20EE35
:105F0800270ABDEEC00A83ED000A7047000061450C
:105F18009CE5032037B50E4B1B6819440D4B1B68D5
:105F2800044602A8194440F8041D00F06FFC00F074
:105F380023FC054600F0CBFD2844002300F8013C73
:105F480029462046FFF734FF204603B030BD00BF86
:105F58009CE5032094E5032010B50020FEF7A8FE79
:105F6800044668B9FEF7CCFF01280BD12046FEF79E
:105F7800E7FF38B9FFF79AFF30B9FFF70DF8F9E7EF
:105F8800012010BD002010BDFFF790FF0020FEF794
:105F98008FFE003018BF012010BD08B5FFF7DCFFE9
:105FA800BDE80840FEF764BE08B5FFF7F6FFFFF747
:105FB8004BFF014B986808BD6CE5032008B5FFF757
:105FC800ECFFFFF741FF014B586808BD6CE5032063
:105FD80008B5FFF7E2FFFFF737FF014B186808BD68
:105FE8006CE5032008B5FFF7D8FFFFF72DFF014B3D
:105FF800D86808BD6CE5032008B5FFF7CEFFBDE8FB
:106008000840FFF761BF000008B5FFF7C6FFFFF7BC
:106018001BFF014B586908BD6CE50320024B1A6849
:10602800024B1A60704700BF88E2032090E5032006
:1060380070474174704708B5007CFEF729FF20EAD5
:10604800E07008BD08B5007CFEF7FAFE20EAE070B3
:1060580008BD08B5007CFEF703FF30EA200028BF22
:106068004FF0FF3008BD08B5007CFEF7F1FE30EABE
:10607800200028BF4FF0FF3008BD007CFEF7F8BEB7
:1060880010B51421044600F02AFA204610BD70B558
:10609800457C04460E4625B9007CFEF7F9FE00282B
:1060A80005DD3146207CBDE87040FEF7C1BE2846BC
:1060B80070BD000010B50446084611460022626013
:1060C8004FF47A72A260054A226001222074627439
:1060D8001A46FEF7A5FE204610BD00BFC4760D0087
:1060E800007CFEF7CDBE000038B50C4D296811F0D4
:1060F800010411D12846FDF7D0FF68B1084A094BC1
:1061080009482146FFF7D6FF2846FDF7CBFF074A87
:106118000749054800F0DEF9034838BD38E6032092
:106128003CE60320B4E50320A0E5032040E3032078
:1061380039600D0041747047704708B50021007C34
:10614800FEF7C6FE30EA200028BF4FF0FF3008BD3A
:1061580008B50121007CFEF7BBFE30EA200028BF0D
:106168004FF0FF3008BD08B5007CFEF7A9FE20EA15
:10617800E07008BD08B5007CFEF79AFE20EAE070E2
:1061880008BD007CFEF7B4BE10B51421044600F02B
:10619800A6F9204610BD38B50446007C0D46FEF72A
:1061A8008FFE002801DC607C28B12946207CFEF7A0
:1061B80097FE20EAE07038BD10B5044600236360FE
:1061C8004FF47A73A360054B2360012308462174BA
:1061D80063741146FEF764FE204610BDF4760D0088
:1061E80010B514220446002100F013FC204610BD0F
:1061F80030B50E4D87B001A8FFF7F2FF296811F0FE
:10620800010410D12846FDF748FF60B101AA2146D4
:106218000748FFF7D1FF2846FDF744FF054A06491E
:10622800034800F057F9024807B030BDC0E6032024
:10623800C4E6032040E3032041610D00002211461B
:106248004068FEF7E9BE002211464068FEF704BF29
:10625800002211464068FEF70FBF00224068FEF793
:1062680003BF002281F001014068FEF7EDBE002364
:106278001A4619464068FEF7DFBE00231A4619463B
:106288004068FEF7D1BE002211464068FEF7B4BE52
:10629800002202214068FEF7B7BE00231A46406874
:1062A800FEF7A2BE024B04225A60024A1A607047E7
:1062B800D8E6032024770D0008B50C4B33B1FFF75F
:1062C80097FF03681B699847002809DC084B63B1EE
:1062D800FFF70AFF03681B699847002803DC08BD1D
:1062E800AFF30080F2E7AFF3008008BD00000000C4
:1062F8000000000008B5FFF7DFFFFEF7B1FC014B17
:10630800186008BDE4E6032007B5002300931A4689
:106318006FF07701FEF726FE03B05DF804FB00007E
:1063280007B543880A2B08D0502B09D1094B1B68A5
:106338003BB103B05DF804EB1847FFF7E5FF06E053
:10634800002300931A466FF07701FEF70BFE03B0A7
:106358005DF804FBE0E6032010B5FEF779FC04467F
:1063680000F060FB074B13B12046AFF3008000211B
:106378000448FEF731FE00210348BDE81040FEF74F
:10638800E7BD00BF0000000029630D0010B50446FA
:106398000F48FFF7C3FC28B1A4F10B03022B01D867
:1063A800002010BD00F054F8FFF736FA08B1012CB0
:1063B800F6D9FFF799FEFFF793FE18B1A4F1090388
:1063C800012BEDD9232C8CBF0020012010BD00BF6C
:1063D80008E70320232838B504460D460AD8FF29C4
:1063E80008D0FFF7D3FF28B129462046BDE838403A
:1063F800FEF76EBC38BD38B504460D46FEF770FC96
:10640800FF2810D0062804D84D2323FA00F0C3072C
:1064180009D42046FFF7BAFF28B129462046BDE82F
:106428003840FEF765BC38BD10B5074C2368DB075C
:1064380008D42046FDF731FE20B1FEF721FC2046A6
:10644800FDF730FE014810BDE8E60320ECE6032026
:1064580038B50B4D296811F001040FD12846FDF716
:106468001CFE58B121460748FFF7A2F92846FDF758
:1064780019FE054A0549034800F02CF8014838BDC3
:10648800F0E60320F4E6032040E3032061570D0003
:1064980070B50C4C0C4E0D4D00212046FFF72AFC20
:1064A80020460B4C3246294600F014F801212046BC
:1064B800FFF720FC324629462046BDE8704000F030
:1064C80009B800BF08E7032040E30320ED5C0D0096
:1064D80018E703200B460146184600F089B9FDF776
:1064E800D8BD08B5FEF700FE244B1A68D0075CBF7C
:1064F80001221A60224B1A68D1075CBF01221A6078
:10650800204B1A68D2075CBF01221A601E4B1A681A
:10651800D0075CBF01221A601C4B1A68D1075CBF08
:1065280001221A601A4B1A68D2075CBF01221A604E
:10653800184B1A68D0075CBF01221A60164B1A68FC
:10654800D1075CBF01221A60144B1A68D2075CBFDE
:1065580001221A60124B1A68D0075CBF01221A6028
:10656800104B1A68D1075CBF01221A600E4B1A68DB
:10657800D2075CBF01221A60704700BF54E70320AE
:1065880050E703204CE7032048E7032044E70320B3
:1065980040E703203CE7032038E7032034E70320E3
:1065A80030E703202CE7032028E70320184B1A685C
:1065B800D1075CBF01221A60164B1A68D2075CBF6C
:1065C80001221A60144B1A68D0075CBF01221A60B6
:1065D800124B1A68D1075CBF01221A60104B1A6867
:1065E800D2075CBF01221A600E4B1A68D0075CBF45
:1065F80001221A600C4B1A68D1075CBF01221A608D
:106608000A4B1A68D2075CBF01221A60704700BFA4
:1066180074E7032070E703206CE7032068E7032092
:1066280064E7032060E703205CE7032058E70320C2
:10663800184B1A68D1075CBF01221A60164B1A68FA
:10664800D2075CBF01221A60144B1A68D0075CBFDE
:1066580001221A60124B1A68D1075CBF01221A6026
:10666800104B1A68D2075CBF01221A600E4B1A68D9
:10667800D0075CBF01221A600C4B1A68D1075CBFB7
:1066880001221A600A4B1A68D2075CBF01221A60FD
:10669800704700BF94E7032090E703208CE70320AE
:1066A80088E7032084E7032080E703207CE70320B2
:1066B80078E70320244B1A68D0075CBF01221A60D0
:1066C800224B1A68D1075CBF01221A60204B1A6856
:1066D800D2075CBF01221A601E4B1A68D0075CBF44
:1066E80001221A601C4B1A68D1075CBF01221A608C
:1066F8001A4B1A68D2075CBF01221A60184B1A6835
:10670800D0075CBF01221A60164B1A68D1075CBF1C
:1067180001221A60144B1A68D2075CBF01221A6062
:10672800124B1A68D0075CBF01221A60104B1A6816
:10673800D1075CBF01221A600E4B1A68D2075CBFF2
:1067480001221A60704700BFC4E70320C0E7032096
:10675800BCE70320B8E70320B4E70320B0E7032031
:10676800ACE70320A8E70320A4E70320A0E7032061
:106778009CE7032098E70320094B70B51C68256C3B
:1067880006463DB91A20FEF77FFC1A2220642946E6
:1067980000F03FF9216C3046BDE8704000F002B8C7
:1067A800F0E2032010B50C4641690369826986B09E
:1067B80001F26C710491016803914168029181684A
:1067C8000191C1680091074903EB43030B44064953
:1067D80002EB42020A4420460449FEF76DFC2046BB
:1067E80006B010BD65770D0050770D0089770D0054
:1067F80010B5054C13462CB10A4601460220AFF3EA
:10680800008010BD204610BD0000000038B5074BC1
:106818001C68E36B05461BB92420FEF735FCE063D2
:10682800E16B2846BDE8384000F002B8F0E20320EA
:106838002DE9F0410C46804600F0F2FC214607465F
:10684800404600F0F1FC466906F26C76B307044650
:1068580005D1642296FBF2F302FB13634BB94FF4A4
:10686800C87596FBF5F305FB1365B5FA85F35B0967
:1068780000E001235F4A302505FB032500F004FBF7
:1068880000F004FB5C4B1B68F3B17B689E4205D1AA
:106898003968D8F80030FA6941B90AE0304600F0A2
:1068A8004BFA0028F4D14FF0FF330DE0934208DB98
:1068B80001E0934207DABA6B9342ACBF002301238D
:1068C80002E0002300E001232362236A012B0CBFAE
:1068D800F96B396A4FF461633C2091FBF3F603FBD3
:1068E8001613616893FBF0F200FB12302368891AD3
:1068F800A26861601B1A921B3B2B2360A26003DD18
:10690800013161603C3B04E0002B03DA013961602E
:106918003C33236063683B2B03DD0132A2603C3BC0
:1069280004E0002B03DA013AA2603C336360A368F9
:10693800172B22DDE2690132E261A2690132062ADF
:10694800C8BF0022A261E268183B0132A360236934
:10695800E26055F823108A4246DD01330C2B0CBF48
:1069680063692361A2EB0102E26001BF01330022E7
:106978002261636108BFE26136E0002B34DAE26924
:10698800013AE261A269013A48BF0622A261E268BF
:106998001833013AE260A36032BB2369013B01D49A
:1069A80023611DE00B23236163695A1E12F0030F54
:1069B800626103F26B7305D1642193FBF1F201FB71
:1069C80012324AB94FF4C87193FBF1F201FB12334A
:1069D800B3FA83F35B0900E0012303F5B673E361BF
:1069E800236955F82330E36000F04FFA2046BDE8EC
:1069F800F08100BF10790D00E4E7032010B5431EB5
:106A08000A44914204D011F8014B03F8014FF8E70A
:106A180010BD02440346934202D003F8011BFAE773
:106A28007047000038B5124B1C68A36B0546D3B9F4
:106A38001820FEF729FB43F20E33A06303804AF6C1
:106A4800CD33438041F2342383804EF26D63C3809B
:106A58004DF6EC630381052343810B2383810122D7
:106A68000023C0E90423A36B00221D615A6138BDCD
:106A7800F0E2032010F8012B11F8013B012A28BF8E
:106A88009A42F7D0D01A7047034611F8012B03F841
:106A9800012B002AF9D17047024B0146186800F013
:106AA80003B800BFF0E2032070B5064608460C465E
:106AB80000F00DF8451C29463046FEF71DFB06463A
:106AC80018B12A462146FFF799FF304670BD0346A4
:106AD80013F8012B002AFBD1181A0138704730B57A
:106AE80082B1451E013915F8013F11F8014FA34243
:106AF80006D1EC431444E04201D0002BF3D11C46EC
:106B0800181B30BD104630BD2DE9F047804640487F
:106B1800D0F800900F463D4615F8014B09EB0400EC
:106B2800407800F0080000F0FF0608B12F46F2E7B1
:106B38002D2C03D1BD1C7C78012603E02B2C04BF2F
:106B48007C78BD1C13B1102B0AD15BE0302C57D1D7
:106B5800287800F0DF0058284DD16C7810230235D2
:106B6800002E14BF4FF0004C6FF0004C0027BCFB08
:106B7800F3FA384603FB1ACC09EB040E9EF801E041
:106B88001EF0040F01D0303C0BE01EF0030E1BD0AA
:106B9800BEF1010F0CBF4FF0370E4FF0570ECEEB82
:106BA8000404A34210DDB7F1FF3F0AD0504506D8D0
:106BB80001D1644503DC03FB0040012701E04FF0ED
:106BC800FF3715F8014BD7E77B1C0CD1002E4FF08F
:106BD800220314BF4FF000406FF00040C8F80030A7
:106BE8002AB9BDE8F08706B1404272B107B1691E03
:106BF8001160BDE8F0873024002BB1D10823AFE73E
:106C08000A23ADE7302CA3D0AAE7BDE8F08700BF80
:106C18008CE2032013460A46014602480068FFF743
:106C280073BF00BFF0E203202DE9F04780463C48DF
:106C3800D0F800900E46354615F8014B09EB0400D4
:106C4800407800F0080000F0FF0708B12E46F2E790
:106C58002D2C03D1B51C7478012703E02B2C04BF1D
:106C68007478B51C13B1102B0AD153E0302C4FD1D6
:106C7800287800F0DF00582845D16C7810230235B9
:106C88004FF0FF3C0026BCFBF3FC03FB0CFA6FEA59
:106C98000A0A304609EB040E9EF801E01EF0040FC4
:106CA80001D0303C0BE01EF0030E1AD0BEF1010FEC
:106CB8000CBF4FF0370E4FF0570ECEEB0404A34233
:106CC8000FDD002E08DB604506D801D1544503DCF2
:106CD80003FB0040012601E04FF0FF3615F8014B99
:106CE800D8E7002E07DA2223C8F800304FF0FF302B
:106CF8002AB9BDE8F08707B1404272B106B1691EF2
:106D08001160BDE8F0873024002BB9D10823B7E71C
:106D18000A23B5E7302CABD0B2E7BDE8F08700BF57
:106D28008CE2032013460A46014602480068FFF732
:106D38007BBF00BFF0E203202DE9F74F044600F0C7
:106D48006FFA40F2B1739C4240F396806FF4F66399
:106D5800E318A4F2B2729B1040F26D1505FB0235E0
:106D6800A4F26D726FF0630392FBF3F36FF4C862E1
:106D78002B44A5184FF4C87295FBF2F51D44642303
:106D880094FBF2F794FBF3F602FB174703FB164656
:106D980000F13803B7FA87FE019304F00303446057
:106DA8004FEA5E1E014600934FF0070C0B7A4A2B00
:106DB8000ED14B69009AEC1802B906B927B93B2BDA
:106DC800D4BF0023012300E000232344013B3FE01C
:106DD800442B02D14B692B443AE0009B2BB9002E7F
:106DE8000CBFF0464FF0010800E0F046244BCC6899
:106DF800302202FB0838A8F1040AA9460123A3425D
:106E080004DA5AF804BF0133D944F8E709F1040356
:106E180093FBFCFBCBEBCB0A012CCAEB030A4B69B7
:106E2800B8BF012404F18044B3EB0A0A0B6904F1EA
:106E3800FF3403F1FF3348BF0AF1070AC3EBC3036A
:106E480058F824405344A34201DB073BFBE74B447B
:106E58008C690C4A02FB03430C6A234441F81C3F2B
:106E6800019B9942A2D1C369826B9342ACBF0023B4
:106E780001230360012000E0002003B0BDE8F08F8B
:106E880010790D008051010070477047014B186858
:106E980000F002B8F0E203202DE9F04F8DB007466C
:106EA80000F0BEF9B049B14E0446384600F0B0F9DA
:106EB800054660B9AE4BAF4A1860AF4B1860AF4B90
:106EC80030681A605A60FEF7E7F8356048E13168C3
:106ED80079B93068FEF7E0F82846FFF7F8FD411C5D
:106EE8003846FEF709F9306048B12946FFF7CCFD6E
:106EF80005E0FFF7BFFD002800F03281E9E72B78B5
:106F08009F4AA0493A2B08BF01350AAE33462846A6
:106F1800FEF7DAF8002840F323810A9BEF18EB5CB0
:106F28002D2B03D101374FF0FF3503E02B2B08BF82
:106F3800013701250DF1200A0DF11E0B4FF0000855
:106F48000396CDF808A00196CDF800B0334607AAFD
:106F58008D49ADF81E803846ADF82080FEF7B4F8AC
:106F6800404540F3FD80BDF81E20BDF82030DFF815
:106F780024923C2101FB0233BDF81C204FF46161CF
:106F880001FB02335D4325627C4D7D4B2B600A9BE0
:106F98007C491F444A4633463846FEF795F8404533
:106FA80008DC2B686B60724B226A1A60724BC3F85C
:106FB8000080D5E00A9BC5F80490FD18FB5C2D2BDA
:106FC80003D101354FF0FF3703E02B2B08BF013504
:106FD80001270023ADF81C30ADF81E30ADF8203085
:106FE8000A930396CDF808A00196CDF800B0334671
:106FF80007AA65492846FEF767F8002804DC236AD3
:10700800A3F56163E3630EE0BDF81E20BDF82030F0
:107018003C2101FB0233BDF81C204FF4616101FBE8
:1070280002335F43E7630A9B27461D444FF000097C
:107038002B782C2B08BF013595F80080B8F14D0F3F
:1070480026D10DF12603029309AB0093039601960E
:1070580033460DF122024D492846FEF735F803283C
:107068007ED1BDF822104B1E0B2B79D8BDF82420F9
:10707800531E042B74D8BDF82630062B70D887F819
:107088000880F9603A617B610A9B05EB03082AE0F6
:10709800B8F14A0F06BF0135434644230A220BA91B
:1070A80028460593FFF73EFEDDF82C80ADF8260054
:1070B8004545059B14D14D23B9F1000F07D1237223
:1070C8000323E36002232361C4F814900BE084F8DF
:1070D80024300B23A3620123E3620023236302E02D
:1070E80080B23B7278610223ADF81C300023ADF802
:1070F8001E30ADF820300A9398F800302F2B0BD1B2
:107108000396CDF808A00196CDF800B0334607AA3B
:107118001F494046FDF7D8FFBDF81E20BDF82030B6
:107128003C2101FB0233BDF81C204FF4616101FBD7
:107138000233BB610A9D09F10109B9F1020F454407
:1071480007F11C077FF474AF6068FFF7F5FD084B83
:10715800226A1A60E36B9B1A074A18BF012313605F
:107168000DB0BDE8F08F00BF70790D00E0E7032097
:10717800E8E7032073790D00E4E70320F4E2032035
:10718800D3E7032077790D009A790D0086790D00F1
:1071980099790D00C8E703202DE9F84F07468B467B
:1071A800904600F0D9F8194B1D689A463DB15C46E7
:1071B800234613F8012B42B13D2A1C46F8D1384624
:1071C80000F0CBF80020BDE8F88FCBEB0404A9460B
:1071D80059F8040B0028F2D022465946FFF77FFCE5
:1071E80088B959F8043C1E191B5D3D2B0BD1DAF800
:1071F8000030ED1AAD103846C8F8005000F0ADF870
:10720800701CBDE8F88F4D46E1E700BF3CE3032062
:1072180007B501AAFFF7C0FF03B05DF804FB000043
:1072280000487047FCE203200268474BF0B592FB28
:10723800F3F403FB1422002ABCBF02F5A83202F5BE
:10724800C0724FF4616004F52F2492FBF0F300FB49
:1072580013224FF03C00ACBF04F66C2404F66B24F8
:107268008B6092FBF0F300FB13224B600A6007234C
:10727800E21C92FBF3F3C3EBC303D31A8B61334BCA
:10728800334D94FBF5F503FB054448F6AC62B4FBBB
:10729800F2F2224440F2B457B4FBF7F3D21A2D4865
:1072A800B4FBF0F048F69466131AB3FBF6F63444D0
:1072B80040F26D12B3FBF2F0B3FBF7F3E31A02FBF3
:1072C8001033992403EB83020232B2FBF4F20A2A48
:1072D80004FB02F404F102064FF00504B6FBF4F4D3
:1072E80034BF02266FF0090616444FF4C87202FB39
:1072F80005055F1C012E98BF0135B3F5997FA7EBF3
:10730800040702D3A3F5997214E0820705D1642417
:10731800B0FBF4F204FB12024AB94FF4C872B0FB96
:10732800F2F402FB1400B0FA80F2520900E00122E4
:107338003B331A44A5F26C750023CA614D610E6196
:10734800CF600B620846F0BD805101004FC5FDFFBC
:10735800B13A0200B03A0200704770471D400D0074
:1073680059400D0085400D0089400D0000000000C7
:107378003000320033005254432054696D65005286
:10738800656C65617365005365742D54696D657A24
:107398006F6E6500416C61726D2D4D6F64650041C3
:1073A8006C61726D2D5365636F6E647300436C6F0F
:1073B800636B204E6F74205365740054696D657259
:1073C80000436865636B20746865206F7363696C3C
:1073D8006C61746F7200476F696E6720746F2073F9
:1073E8006C65657020666F72202569207365636F10
:1073F8006E647300416C61726D00526570656174F2
:10740800696E67206576657279206D696E75746539
:1074180000526570656174696E672065766572797A
:1074280020686F757200416C61726D2064657465C7
:10743800637465640054696D65207A6F6E65206FAA
:107448006666736574202569005061727469636C9F
:10745800652054696D6500536C65657020536563DC
:107468006F6E64732073657420746F20256C6400DC
:10747800302E313100000000000000001F00000025
:107488003B0000005A000000780000009700000050
:10749800B5000000D4000000F30000001101000056
:1074A800300100004E010000000000000000000054
:1074B80039510D003F510D0069510D004D510D001E
:1074C8003B510D00000000000000000043570D0074
:1074D80039570D002F570D0025570D0019570D006E
:1074E8000D570D0001570D00F9560D00EF560D0010
:1074F800E5560D00355B0D0000000000000000009F
:1075080061570D00AB570D0083570D0063570D00F1
:107518008B570D0093570D009B570D00A3570D0077
:10752800000000000000000089580D0079580D0087
:107538007B580D0066006C6E00666E00636F6465B4
:107548000064657461696C000D0A0025303130757E
:1075580020005D20002564002C200028293A200006
:10756800205B00636F6465203D2000646574616979
:107578006C73203D20006261756400536572696117
:107588006C0053657269616C3100747970650070C4
:107598006172616D00636D6400696400686E640007
:1075A8007374726D0066696C74006C766C0061644B
:1075B8006448616E646C65720072656D6F766548CB
:1075C800616E646C657200656E756D48616E646CA1
:1075D800657273004A534F4E53747265616D4C6FF8
:1075E8006748616E646C657200617070006E6F6EE2
:1075F8006500747261636500696E666F0077617219
:107608006E006572726F720070616E696300616C02
:107618006C0000000000000000000000CB590D00C5
:10762800C1590D00B7590D00AD590D00A1590D00F4
:1076380095590D0089590D0081590D0077590D0094
:107648006D590D00355B0D000000000000000000C2
:10765800CD5A0D00D75A0D00E15A0D00EB5A0D0016
:10766800F55A0D00015B0D000D5B0D00195B0D0057
:10767800215B0D002B5B0D00355B0D000000000049
:1076880000000000ED5C0D00EF5C0D00252B303391
:10769800643A253032750025592D256D2D25645401
:1076A80025483A254D3A2553257A00617363746954
:1076B8006D650000000000000000000039600D004A
:1076C80089600D0097600D00155C0D004D600D0080
:1076D8006F600D005B600D0083600D003B600D0066
:1076E8003F600D00000000000000000041610D0037
:1076F80091610D009F610D00155C0D007D610D000D
:1077080043610D0059610D008B610D006F610D0023
:107718003D610D000000000000000000A3620D00A4
:1077280099620D008F620D0045620D0083620D00A5
:1077380077620D006B620D0063620D0059620D00E7
:107748004F620D00355B0D0053756E4D6F6E5475AD
:10775800655765645468754672695361744A616E09
:107768004665624D61724170724D61794A756E4A23
:10777800756C4175675365704F63744E6F764465D9
:1077880063252E337320252E337325336420252E4D
:1077980032643A252E32643A252E32642025640A52
:1077A80000002020202020202020202828282828E9
:1077B80020202020202020202020202020202020C1
:1077C8002020881010101010101010101010101019
:1077D8001010040404040404040404041010101019
:1077E80010101041414141414101010101010101D4
:1077F8000101010101010101010101010110101044
:1078080010101042424242424202020202020202A6
:107818000202020202020202020202020210101016
:107828001020000000000000000000000000000020
:107838000000000000000000000000000000000040
:107848000000000000000000000000000000000030
:107858000000000000000000000000000000000020
:107868000000000000000000000000000000000010
:107878000000000000000000000000000000000000
:1078880000000000000000000000000000000000F0
:1078980000000000000000000000000000000000E0
:1078A80000000000000000000000000000000000D0
:1078B80000000000000000000000000000000000C0
:1078C80000000000000000000000000000000000B0
:1078D80000000000000000000000000000000000A0
:1078E8000000000000000000000000000000000090
:1078F8000000000000000000000000000000000080
:1079080000000000430000001F0000001C000000F1
:107918001F0000001E0000001F0000001E000000E5
:107928001F0000001F0000001E0000001F000000D4
:107938001E0000001F0000001F0000001D000000C6
:107948001F0000001E0000001F0000001E000000B5
:107958001F0000001F0000001E0000001F000000A4
:107968001E0000001F000000545A00474D54002517
:1079780031305B5E302D392C2B2D5D256E004D2569
:107988006875256E2E256875256E2E256875256EF9
:10799800002F256875256E3A256875256E3A256885
:1079A80075256E0055460D00054C0D004D570D0010
:1079B8005D590D00815A0D00015C0D00D15C0D0070
:1079C800395E0D0025600D00AD620D0099640D0053
:1079D800F1640D00B5650D0039660D00BD660D003A
:0879E800000000000000000097
:1079F0000A00000003000000B3760D00A9770D0017
:107A000000000000AC780D00CC780D00EC780D0083
:107A10000000000000000000000000000000000066
:107A20000C790D00000000000000000000000000C4
:107A30000000000000000000000000000000000046
:107A40000000000000000000000000000000000036
:107A50000000000000000000000000000000000026
:107A600090E2032073790D0073790D00010000008E
:107A7000000000004A0000000000000000000000BC
:107A800000000000000000000000000000000000F6
:107A90004A0000000000000000000000000000009C
:107AA000000000000000000000000000ECE70320E0
:107AB000FFFFFFFF00000102030405060708090A93
:107AC0000B0C0D0E0F101112131415161718191A8E
:087AD0001B1C1D1E1F202800D5
:047AD8007856341296
:04000003D0004018D1
:00000001FF
